{
  "contractName": "Diploma",
  "abi": [
    {
      "inputs": [],
      "stateMutability": "nonpayable",
      "type": "constructor"
    },
    {
      "anonymous": false,
      "inputs": [
        {
          "indexed": true,
          "internalType": "address",
          "name": "owner",
          "type": "address"
        },
        {
          "indexed": true,
          "internalType": "address",
          "name": "approved",
          "type": "address"
        },
        {
          "indexed": true,
          "internalType": "uint256",
          "name": "tokenId",
          "type": "uint256"
        }
      ],
      "name": "Approval",
      "type": "event"
    },
    {
      "anonymous": false,
      "inputs": [
        {
          "indexed": true,
          "internalType": "address",
          "name": "owner",
          "type": "address"
        },
        {
          "indexed": true,
          "internalType": "address",
          "name": "operator",
          "type": "address"
        },
        {
          "indexed": false,
          "internalType": "bool",
          "name": "approved",
          "type": "bool"
        }
      ],
      "name": "ApprovalForAll",
      "type": "event"
    },
    {
      "anonymous": false,
      "inputs": [
        {
          "indexed": true,
          "internalType": "address",
          "name": "from",
          "type": "address"
        },
        {
          "indexed": true,
          "internalType": "address",
          "name": "to",
          "type": "address"
        },
        {
          "indexed": true,
          "internalType": "uint256",
          "name": "tokenId",
          "type": "uint256"
        }
      ],
      "name": "Transfer",
      "type": "event"
    },
    {
      "inputs": [
        {
          "internalType": "address",
          "name": "to",
          "type": "address"
        },
        {
          "internalType": "uint256",
          "name": "tokenId",
          "type": "uint256"
        }
      ],
      "name": "approve",
      "outputs": [],
      "stateMutability": "nonpayable",
      "type": "function"
    },
    {
      "inputs": [
        {
          "internalType": "address",
          "name": "owner",
          "type": "address"
        }
      ],
      "name": "balanceOf",
      "outputs": [
        {
          "internalType": "uint256",
          "name": "",
          "type": "uint256"
        }
      ],
      "stateMutability": "view",
      "type": "function",
      "constant": true
    },
    {
      "inputs": [
        {
          "internalType": "uint256",
          "name": "tokenId",
          "type": "uint256"
        }
      ],
      "name": "getApproved",
      "outputs": [
        {
          "internalType": "address",
          "name": "",
          "type": "address"
        }
      ],
      "stateMutability": "view",
      "type": "function",
      "constant": true
    },
    {
      "inputs": [
        {
          "internalType": "address",
          "name": "owner",
          "type": "address"
        },
        {
          "internalType": "address",
          "name": "operator",
          "type": "address"
        }
      ],
      "name": "isApprovedForAll",
      "outputs": [
        {
          "internalType": "bool",
          "name": "",
          "type": "bool"
        }
      ],
      "stateMutability": "view",
      "type": "function",
      "constant": true
    },
    {
      "inputs": [],
      "name": "name",
      "outputs": [
        {
          "internalType": "string",
          "name": "",
          "type": "string"
        }
      ],
      "stateMutability": "view",
      "type": "function",
      "constant": true
    },
    {
      "inputs": [
        {
          "internalType": "uint256",
          "name": "tokenId",
          "type": "uint256"
        }
      ],
      "name": "ownerOf",
      "outputs": [
        {
          "internalType": "address",
          "name": "",
          "type": "address"
        }
      ],
      "stateMutability": "view",
      "type": "function",
      "constant": true
    },
    {
      "inputs": [
        {
          "internalType": "address",
          "name": "from",
          "type": "address"
        },
        {
          "internalType": "address",
          "name": "to",
          "type": "address"
        },
        {
          "internalType": "uint256",
          "name": "tokenId",
          "type": "uint256"
        }
      ],
      "name": "safeTransferFrom",
      "outputs": [],
      "stateMutability": "nonpayable",
      "type": "function"
    },
    {
      "inputs": [
        {
          "internalType": "address",
          "name": "from",
          "type": "address"
        },
        {
          "internalType": "address",
          "name": "to",
          "type": "address"
        },
        {
          "internalType": "uint256",
          "name": "tokenId",
          "type": "uint256"
        },
        {
          "internalType": "bytes",
          "name": "_data",
          "type": "bytes"
        }
      ],
      "name": "safeTransferFrom",
      "outputs": [],
      "stateMutability": "nonpayable",
      "type": "function"
    },
    {
      "inputs": [
        {
          "internalType": "address",
          "name": "operator",
          "type": "address"
        },
        {
          "internalType": "bool",
          "name": "approved",
          "type": "bool"
        }
      ],
      "name": "setApprovalForAll",
      "outputs": [],
      "stateMutability": "nonpayable",
      "type": "function"
    },
    {
      "inputs": [
        {
          "internalType": "bytes4",
          "name": "interfaceId",
          "type": "bytes4"
        }
      ],
      "name": "supportsInterface",
      "outputs": [
        {
          "internalType": "bool",
          "name": "",
          "type": "bool"
        }
      ],
      "stateMutability": "view",
      "type": "function",
      "constant": true
    },
    {
      "inputs": [],
      "name": "symbol",
      "outputs": [
        {
          "internalType": "string",
          "name": "",
          "type": "string"
        }
      ],
      "stateMutability": "view",
      "type": "function",
      "constant": true
    },
    {
      "inputs": [
        {
          "internalType": "uint256",
          "name": "tokenId",
          "type": "uint256"
        }
      ],
      "name": "tokenURI",
      "outputs": [
        {
          "internalType": "string",
          "name": "",
          "type": "string"
        }
      ],
      "stateMutability": "view",
      "type": "function",
      "constant": true
    },
    {
      "inputs": [
        {
          "internalType": "address",
          "name": "from",
          "type": "address"
        },
        {
          "internalType": "address",
          "name": "to",
          "type": "address"
        },
        {
          "internalType": "uint256",
          "name": "tokenId",
          "type": "uint256"
        }
      ],
      "name": "transferFrom",
      "outputs": [],
      "stateMutability": "nonpayable",
      "type": "function"
    },
    {
      "inputs": [
        {
          "internalType": "address",
          "name": "student",
          "type": "address"
        },
        {
          "internalType": "string",
          "name": "tokenURI",
          "type": "string"
        }
      ],
      "name": "awardDiploma",
      "outputs": [
        {
          "internalType": "uint256",
          "name": "",
          "type": "uint256"
        }
      ],
      "stateMutability": "nonpayable",
      "type": "function"
    }
  ],
  "bytecode": "0x60806040523480156200001157600080fd5b506040518060400160405280600781526020017f6469706c6f6d61000000000000000000000000000000000000000000000000008152506040518060400160405280600481526020017f44504c4d00000000000000000000000000000000000000000000000000000000815250816000908051906020019062000096929190620000b8565b508060019080519060200190620000af929190620000b8565b505050620001cd565b828054620000c69062000168565b90600052602060002090601f016020900481019282620000ea576000855562000136565b82601f106200010557805160ff191683800117855562000136565b8280016001018555821562000136579182015b828111156200013557825182559160200191906001019062000118565b5b50905062000145919062000149565b5090565b5b80821115620001645760008160009055506001016200014a565b5090565b600060028204905060018216806200018157607f821691505b602082108114156200019857620001976200019e565b5b50919050565b7f4e487b7100000000000000000000000000000000000000000000000000000000600052602260045260246000fd5b612c4580620001dd6000396000f3fe608060405234801561001057600080fd5b50600436106100ea5760003560e01c806370a082311161008c578063a22cb46511610066578063a22cb4651461026f578063b88d4fde1461028b578063c87b56dd146102a7578063e985e9c5146102d7576100ea565b806370a08231146101f157806395d89b4114610221578063964ed6d91461023f576100ea565b8063095ea7b3116100c8578063095ea7b31461016d57806323b872dd1461018957806342842e0e146101a55780636352211e146101c1576100ea565b806301ffc9a7146100ef57806306fdde031461011f578063081812fc1461013d575b600080fd5b61010960048036038101906101049190611d3c565b610307565b604051610116919061257d565b60405180910390f35b6101276103e9565b6040516101349190612598565b60405180910390f35b61015760048036038101906101529190611d8e565b61047b565b6040516101649190612516565b60405180910390f35b61018760048036038101906101829190611d00565b610500565b005b6101a3600480360381019061019e9190611ba6565b610618565b005b6101bf60048036038101906101ba9190611ba6565b610678565b005b6101db60048036038101906101d69190611d8e565b610698565b6040516101e89190612516565b60405180910390f35b61020b60048036038101906102069190611b41565b61074a565b60405161021891906127da565b60405180910390f35b610229610802565b6040516102369190612598565b60405180910390f35b61025960048036038101906102549190611cac565b610894565b60405161026691906127da565b60405180910390f35b61028960048036038101906102849190611c70565b610976565b005b6102a560048036038101906102a09190611bf5565b610af7565b005b6102c160048036038101906102bc9190611d8e565b610b59565b6040516102ce9190612598565b60405180910390f35b6102f160048036038101906102ec9190611b6a565b610cab565b6040516102fe919061257d565b60405180910390f35b60007f80ac58cd000000000000000000000000000000000000000000000000000000007bffffffffffffffffffffffffffffffffffffffffffffffffffffffff1916827bffffffffffffffffffffffffffffffffffffffffffffffffffffffff191614806103d257507f5b5e139f000000000000000000000000000000000000000000000000000000007bffffffffffffffffffffffffffffffffffffffffffffffffffffffff1916827bffffffffffffffffffffffffffffffffffffffffffffffffffffffff1916145b806103e257506103e182610d3f565b5b9050919050565b6060600080546103f890612a3a565b80601f016020809104026020016040519081016040528092919081815260200182805461042490612a3a565b80156104715780601f1061044657610100808354040283529160200191610471565b820191906000526020600020905b81548152906001019060200180831161045457829003601f168201915b5050505050905090565b600061048682610da9565b6104c5576040517f08c379a00000000000000000000000000000000000000000000000000000000081526004016104bc9061273a565b60405180910390fd5b6004600083815260200190815260200160002060009054906101000a900473ffffffffffffffffffffffffffffffffffffffff169050919050565b600061050b82610698565b90508073ffffffffffffffffffffffffffffffffffffffff168373ffffffffffffffffffffffffffffffffffffffff16141561057c576040517f08c379a00000000000000000000000000000000000000000000000000000000081526004016105739061279a565b60405180910390fd5b8073ffffffffffffffffffffffffffffffffffffffff1661059b610e15565b73ffffffffffffffffffffffffffffffffffffffff1614806105ca57506105c9816105c4610e15565b610cab565b5b610609576040517f08c379a00000000000000000000000000000000000000000000000000000000081526004016106009061267a565b60405180910390fd5b6106138383610e1d565b505050565b610629610623610e15565b82610ed6565b610668576040517f08c379a000000000000000000000000000000000000000000000000000000000815260040161065f906127ba565b60405180910390fd5b610673838383610fb4565b505050565b61069383838360405180602001604052806000815250610af7565b505050565b6000806002600084815260200190815260200160002060009054906101000a900473ffffffffffffffffffffffffffffffffffffffff169050600073ffffffffffffffffffffffffffffffffffffffff168173ffffffffffffffffffffffffffffffffffffffff161415610741576040517f08c379a0000000000000000000000000000000000000000000000000000000008152600401610738906126ba565b60405180910390fd5b80915050919050565b60008073ffffffffffffffffffffffffffffffffffffffff168273ffffffffffffffffffffffffffffffffffffffff1614156107bb576040517f08c379a00000000000000000000000000000000000000000000000000000000081526004016107b29061269a565b60405180910390fd5b600360008373ffffffffffffffffffffffffffffffffffffffff1673ffffffffffffffffffffffffffffffffffffffff168152602001908152602001600020549050919050565b60606001805461081190612a3a565b80601f016020809104026020016040519081016040528092919081815260200182805461083d90612a3a565b801561088a5780601f1061085f5761010080835404028352916020019161088a565b820191906000526020600020905b81548152906001019060200180831161086d57829003601f168201915b5050505050905090565b600060016008836040516108a891906124db565b908152602001604051809103902060009054906101000a900460ff1660ff161415610908576040517f08c379a00000000000000000000000000000000000000000000000000000000081526004016108ff9061265a565b60405180910390fd5b600160088360405161091a91906124db565b908152602001604051809103902060006101000a81548160ff021916908360ff16021790555061094a6007611210565b60006109566007611226565b90506109628482611234565b61096c8184611252565b8091505092915050565b61097e610e15565b73ffffffffffffffffffffffffffffffffffffffff168273ffffffffffffffffffffffffffffffffffffffff1614156109ec576040517f08c379a00000000000000000000000000000000000000000000000000000000081526004016109e39061261a565b60405180910390fd5b80600560006109f9610e15565b73ffffffffffffffffffffffffffffffffffffffff1673ffffffffffffffffffffffffffffffffffffffff16815260200190815260200160002060008473ffffffffffffffffffffffffffffffffffffffff1673ffffffffffffffffffffffffffffffffffffffff16815260200190815260200160002060006101000a81548160ff0219169083151502179055508173ffffffffffffffffffffffffffffffffffffffff16610aa6610e15565b73ffffffffffffffffffffffffffffffffffffffff167f17307eab39ab6107e8899845ad3d59bd9653f200f220920489ca2b5937696c3183604051610aeb919061257d565b60405180910390a35050565b610b08610b02610e15565b83610ed6565b610b47576040517f08c379a0000000000000000000000000000000000000000000000000000000008152600401610b3e906127ba565b60405180910390fd5b610b53848484846112c6565b50505050565b6060610b6482610da9565b610ba3576040517f08c379a0000000000000000000000000000000000000000000000000000000008152600401610b9a9061271a565b60405180910390fd5b6000600660008481526020019081526020016000208054610bc390612a3a565b80601f0160208091040260200160405190810160405280929190818152602001828054610bef90612a3a565b8015610c3c5780601f10610c1157610100808354040283529160200191610c3c565b820191906000526020600020905b815481529060010190602001808311610c1f57829003601f168201915b505050505090506000610c4d611322565b9050600081511415610c63578192505050610ca6565b600082511115610c98578082604051602001610c809291906124f2565b60405160208183030381529060405292505050610ca6565b610ca184611339565b925050505b919050565b6000600560008473ffffffffffffffffffffffffffffffffffffffff1673ffffffffffffffffffffffffffffffffffffffff16815260200190815260200160002060008373ffffffffffffffffffffffffffffffffffffffff1673ffffffffffffffffffffffffffffffffffffffff16815260200190815260200160002060009054906101000a900460ff16905092915050565b60007f01ffc9a7000000000000000000000000000000000000000000000000000000007bffffffffffffffffffffffffffffffffffffffffffffffffffffffff1916827bffffffffffffffffffffffffffffffffffffffffffffffffffffffff1916149050919050565b60008073ffffffffffffffffffffffffffffffffffffffff166002600084815260200190815260200160002060009054906101000a900473ffffffffffffffffffffffffffffffffffffffff1673ffffffffffffffffffffffffffffffffffffffff1614159050919050565b600033905090565b816004600083815260200190815260200160002060006101000a81548173ffffffffffffffffffffffffffffffffffffffff021916908373ffffffffffffffffffffffffffffffffffffffff160217905550808273ffffffffffffffffffffffffffffffffffffffff16610e9083610698565b73ffffffffffffffffffffffffffffffffffffffff167f8c5be1e5ebec7d5bd14f71427d1e84f3dd0314c0f7b2291e5b200ac8c7c3b92560405160405180910390a45050565b6000610ee182610da9565b610f20576040517f08c379a0000000000000000000000000000000000000000000000000000000008152600401610f179061263a565b60405180910390fd5b6000610f2b83610698565b90508073ffffffffffffffffffffffffffffffffffffffff168473ffffffffffffffffffffffffffffffffffffffff161480610f9a57508373ffffffffffffffffffffffffffffffffffffffff16610f828461047b565b73ffffffffffffffffffffffffffffffffffffffff16145b80610fab5750610faa8185610cab565b5b91505092915050565b8273ffffffffffffffffffffffffffffffffffffffff16610fd482610698565b73ffffffffffffffffffffffffffffffffffffffff161461102a576040517f08c379a00000000000000000000000000000000000000000000000000000000081526004016110219061275a565b60405180910390fd5b600073ffffffffffffffffffffffffffffffffffffffff168273ffffffffffffffffffffffffffffffffffffffff16141561109a576040517f08c379a0000000000000000000000000000000000000000000000000000000008152600401611091906125fa565b60405180910390fd5b6110a58383836113e0565b6110b0600082610e1d565b6001600360008573ffffffffffffffffffffffffffffffffffffffff1673ffffffffffffffffffffffffffffffffffffffff16815260200190815260200160002060008282546111009190612950565b925050819055506001600360008473ffffffffffffffffffffffffffffffffffffffff1673ffffffffffffffffffffffffffffffffffffffff168152602001908152602001600020600082825461115791906128c9565b92505081905550816002600083815260200190815260200160002060006101000a81548173ffffffffffffffffffffffffffffffffffffffff021916908373ffffffffffffffffffffffffffffffffffffffff160217905550808273ffffffffffffffffffffffffffffffffffffffff168473ffffffffffffffffffffffffffffffffffffffff167fddf252ad1be2c89b69c2b068fc378daa952ba7f163c4a11628f55a4df523b3ef60405160405180910390a4505050565b6001816000016000828254019250508190555050565b600081600001549050919050565b61124e8282604051806020016040528060008152506113e5565b5050565b61125b82610da9565b61129a576040517f08c379a0000000000000000000000000000000000000000000000000000000008152600401611291906126da565b60405180910390fd5b806006600084815260200190815260200160002090805190602001906112c1929190611965565b505050565b6112d1848484610fb4565b6112dd84848484611440565b61131c576040517f08c379a0000000000000000000000000000000000000000000000000000000008152600401611313906125ba565b60405180910390fd5b50505050565b606060405180602001604052806000815250905090565b606061134482610da9565b611383576040517f08c379a000000000000000000000000000000000000000000000000000000000815260040161137a9061277a565b60405180910390fd5b600061138d611322565b905060008151116113ad57604051806020016040528060008152506113d8565b806113b7846115d7565b6040516020016113c89291906124f2565b6040516020818303038152906040525b915050919050565b505050565b6113ef8383611784565b6113fc6000848484611440565b61143b576040517f08c379a0000000000000000000000000000000000000000000000000000000008152600401611432906125ba565b60405180910390fd5b505050565b60006114618473ffffffffffffffffffffffffffffffffffffffff16611952565b156115ca578373ffffffffffffffffffffffffffffffffffffffff1663150b7a0261148a610e15565b8786866040518563ffffffff1660e01b81526004016114ac9493929190612531565b602060405180830381600087803b1580156114c657600080fd5b505af19250505080156114f757506040513d601f19601f820116820180604052508101906114f49190611d65565b60015b61157a573d8060008114611527576040519150601f19603f3d011682016040523d82523d6000602084013e61152c565b606091505b50600081511415611572576040517f08c379a0000000000000000000000000000000000000000000000000000000008152600401611569906125ba565b60405180910390fd5b805181602001fd5b63150b7a0260e01b7bffffffffffffffffffffffffffffffffffffffffffffffffffffffff1916817bffffffffffffffffffffffffffffffffffffffffffffffffffffffff1916149150506115cf565b600190505b949350505050565b6060600082141561161f576040518060400160405280600181526020017f3000000000000000000000000000000000000000000000000000000000000000815250905061177f565b600082905060005b6000821461165157808061163a90612a6c565b915050600a8261164a919061291f565b9150611627565b60008167ffffffffffffffff811115611693577f4e487b7100000000000000000000000000000000000000000000000000000000600052604160045260246000fd5b6040519080825280601f01601f1916602001820160405280156116c55781602001600182028036833780820191505090505b5090505b60008514611778576001826116de9190612950565b9150600a856116ed9190612ab5565b60306116f991906128c9565b60f81b818381518110611735577f4e487b7100000000000000000000000000000000000000000000000000000000600052603260045260246000fd5b60200101907effffffffffffffffffffffffffffffffffffffffffffffffffffffffffffff1916908160001a905350600a85611771919061291f565b94506116c9565b8093505050505b919050565b600073ffffffffffffffffffffffffffffffffffffffff168273ffffffffffffffffffffffffffffffffffffffff1614156117f4576040517f08c379a00000000000000000000000000000000000000000000000000000000081526004016117eb906126fa565b60405180910390fd5b6117fd81610da9565b1561183d576040517f08c379a0000000000000000000000000000000000000000000000000000000008152600401611834906125da565b60405180910390fd5b611849600083836113e0565b6001600360008473ffffffffffffffffffffffffffffffffffffffff1673ffffffffffffffffffffffffffffffffffffffff168152602001908152602001600020600082825461189991906128c9565b92505081905550816002600083815260200190815260200160002060006101000a81548173ffffffffffffffffffffffffffffffffffffffff021916908373ffffffffffffffffffffffffffffffffffffffff160217905550808273ffffffffffffffffffffffffffffffffffffffff16600073ffffffffffffffffffffffffffffffffffffffff167fddf252ad1be2c89b69c2b068fc378daa952ba7f163c4a11628f55a4df523b3ef60405160405180910390a45050565b600080823b905060008111915050919050565b82805461197190612a3a565b90600052602060002090601f01602090048101928261199357600085556119da565b82601f106119ac57805160ff19168380011785556119da565b828001600101855582156119da579182015b828111156119d95782518255916020019190600101906119be565b5b5090506119e791906119eb565b5090565b5b80821115611a045760008160009055506001016119ec565b5090565b6000611a1b611a1684612826565b6127f5565b905082815260208101848484011115611a3357600080fd5b611a3e8482856129f8565b509392505050565b6000611a59611a5484612856565b6127f5565b905082815260208101848484011115611a7157600080fd5b611a7c8482856129f8565b509392505050565b600081359050611a9381612bb3565b92915050565b600081359050611aa881612bca565b92915050565b600081359050611abd81612be1565b92915050565b600081519050611ad281612be1565b92915050565b600082601f830112611ae957600080fd5b8135611af9848260208601611a08565b91505092915050565b600082601f830112611b1357600080fd5b8135611b23848260208601611a46565b91505092915050565b600081359050611b3b81612bf8565b92915050565b600060208284031215611b5357600080fd5b6000611b6184828501611a84565b91505092915050565b60008060408385031215611b7d57600080fd5b6000611b8b85828601611a84565b9250506020611b9c85828601611a84565b9150509250929050565b600080600060608486031215611bbb57600080fd5b6000611bc986828701611a84565b9350506020611bda86828701611a84565b9250506040611beb86828701611b2c565b9150509250925092565b60008060008060808587031215611c0b57600080fd5b6000611c1987828801611a84565b9450506020611c2a87828801611a84565b9350506040611c3b87828801611b2c565b925050606085013567ffffffffffffffff811115611c5857600080fd5b611c6487828801611ad8565b91505092959194509250565b60008060408385031215611c8357600080fd5b6000611c9185828601611a84565b9250506020611ca285828601611a99565b9150509250929050565b60008060408385031215611cbf57600080fd5b6000611ccd85828601611a84565b925050602083013567ffffffffffffffff811115611cea57600080fd5b611cf685828601611b02565b9150509250929050565b60008060408385031215611d1357600080fd5b6000611d2185828601611a84565b9250506020611d3285828601611b2c565b9150509250929050565b600060208284031215611d4e57600080fd5b6000611d5c84828501611aae565b91505092915050565b600060208284031215611d7757600080fd5b6000611d8584828501611ac3565b91505092915050565b600060208284031215611da057600080fd5b6000611dae84828501611b2c565b91505092915050565b611dc081612984565b82525050565b611dcf81612996565b82525050565b6000611de082612886565b611dea818561289c565b9350611dfa818560208601612a07565b611e0381612ba2565b840191505092915050565b6000611e1982612891565b611e2381856128ad565b9350611e33818560208601612a07565b611e3c81612ba2565b840191505092915050565b6000611e5282612891565b611e5c81856128be565b9350611e6c818560208601612a07565b80840191505092915050565b6000611e856032836128ad565b91507f4552433732313a207472616e7366657220746f206e6f6e20455243373231526560008301527f63656976657220696d706c656d656e74657200000000000000000000000000006020830152604082019050919050565b6000611eeb601c836128ad565b91507f4552433732313a20746f6b656e20616c7265616479206d696e746564000000006000830152602082019050919050565b6000611f2b6024836128ad565b91507f4552433732313a207472616e7366657220746f20746865207a65726f2061646460008301527f72657373000000000000000000000000000000000000000000000000000000006020830152604082019050919050565b6000611f916019836128ad565b91507f4552433732313a20617070726f766520746f2063616c6c6572000000000000006000830152602082019050919050565b6000611fd1602c836128ad565b91507f4552433732313a206f70657261746f7220717565727920666f72206e6f6e657860008301527f697374656e7420746f6b656e00000000000000000000000000000000000000006020830152604082019050919050565b60006120376035836128ad565b91507f4572726f723a20746865206469706c6f6d6120697320616c726561647920766960008301527f6e63756c6174656420746f20612073747564656e7400000000000000000000006020830152604082019050919050565b600061209d6038836128ad565b91507f4552433732313a20617070726f76652063616c6c6572206973206e6f74206f7760008301527f6e6572206e6f7220617070726f76656420666f7220616c6c00000000000000006020830152604082019050919050565b6000612103602a836128ad565b91507f4552433732313a2062616c616e636520717565727920666f7220746865207a6560008301527f726f2061646472657373000000000000000000000000000000000000000000006020830152604082019050919050565b60006121696029836128ad565b91507f4552433732313a206f776e657220717565727920666f72206e6f6e657869737460008301527f656e7420746f6b656e00000000000000000000000000000000000000000000006020830152604082019050919050565b60006121cf602e836128ad565b91507f45524337323155524953746f726167653a2055524920736574206f66206e6f6e60008301527f6578697374656e7420746f6b656e0000000000000000000000000000000000006020830152604082019050919050565b60006122356020836128ad565b91507f4552433732313a206d696e7420746f20746865207a65726f20616464726573736000830152602082019050919050565b60006122756031836128ad565b91507f45524337323155524953746f726167653a2055524920717565727920666f722060008301527f6e6f6e6578697374656e7420746f6b656e0000000000000000000000000000006020830152604082019050919050565b60006122db602c836128ad565b91507f4552433732313a20617070726f76656420717565727920666f72206e6f6e657860008301527f697374656e7420746f6b656e00000000000000000000000000000000000000006020830152604082019050919050565b60006123416029836128ad565b91507f4552433732313a207472616e73666572206f6620746f6b656e2074686174206960008301527f73206e6f74206f776e00000000000000000000000000000000000000000000006020830152604082019050919050565b60006123a7602f836128ad565b91507f4552433732314d657461646174613a2055524920717565727920666f72206e6f60008301527f6e6578697374656e7420746f6b656e00000000000000000000000000000000006020830152604082019050919050565b600061240d6021836128ad565b91507f4552433732313a20617070726f76616c20746f2063757272656e74206f776e6560008301527f72000000000000000000000000000000000000000000000000000000000000006020830152604082019050919050565b60006124736031836128ad565b91507f4552433732313a207472616e736665722063616c6c6572206973206e6f74206f60008301527f776e6572206e6f7220617070726f7665640000000000000000000000000000006020830152604082019050919050565b6124d5816129ee565b82525050565b60006124e78284611e47565b915081905092915050565b60006124fe8285611e47565b915061250a8284611e47565b91508190509392505050565b600060208201905061252b6000830184611db7565b92915050565b60006080820190506125466000830187611db7565b6125536020830186611db7565b61256060408301856124cc565b81810360608301526125728184611dd5565b905095945050505050565b60006020820190506125926000830184611dc6565b92915050565b600060208201905081810360008301526125b28184611e0e565b905092915050565b600060208201905081810360008301526125d381611e78565b9050919050565b600060208201905081810360008301526125f381611ede565b9050919050565b6000602082019050818103600083015261261381611f1e565b9050919050565b6000602082019050818103600083015261263381611f84565b9050919050565b6000602082019050818103600083015261265381611fc4565b9050919050565b600060208201905081810360008301526126738161202a565b9050919050565b6000602082019050818103600083015261269381612090565b9050919050565b600060208201905081810360008301526126b3816120f6565b9050919050565b600060208201905081810360008301526126d38161215c565b9050919050565b600060208201905081810360008301526126f3816121c2565b9050919050565b6000602082019050818103600083015261271381612228565b9050919050565b6000602082019050818103600083015261273381612268565b9050919050565b60006020820190508181036000830152612753816122ce565b9050919050565b6000602082019050818103600083015261277381612334565b9050919050565b600060208201905081810360008301526127938161239a565b9050919050565b600060208201905081810360008301526127b381612400565b9050919050565b600060208201905081810360008301526127d381612466565b9050919050565b60006020820190506127ef60008301846124cc565b92915050565b6000604051905081810181811067ffffffffffffffff8211171561281c5761281b612b73565b5b8060405250919050565b600067ffffffffffffffff82111561284157612840612b73565b5b601f19601f8301169050602081019050919050565b600067ffffffffffffffff82111561287157612870612b73565b5b601f19601f8301169050602081019050919050565b600081519050919050565b600081519050919050565b600082825260208201905092915050565b600082825260208201905092915050565b600081905092915050565b60006128d4826129ee565b91506128df836129ee565b9250827fffffffffffffffffffffffffffffffffffffffffffffffffffffffffffffffff0382111561291457612913612ae6565b5b828201905092915050565b600061292a826129ee565b9150612935836129ee565b92508261294557612944612b15565b5b828204905092915050565b600061295b826129ee565b9150612966836129ee565b92508282101561297957612978612ae6565b5b828203905092915050565b600061298f826129ce565b9050919050565b60008115159050919050565b60007fffffffff0000000000000000000000000000000000000000000000000000000082169050919050565b600073ffffffffffffffffffffffffffffffffffffffff82169050919050565b6000819050919050565b82818337600083830152505050565b60005b83811015612a25578082015181840152602081019050612a0a565b83811115612a34576000848401525b50505050565b60006002820490506001821680612a5257607f821691505b60208210811415612a6657612a65612b44565b5b50919050565b6000612a77826129ee565b91507fffffffffffffffffffffffffffffffffffffffffffffffffffffffffffffffff821415612aaa57612aa9612ae6565b5b600182019050919050565b6000612ac0826129ee565b9150612acb836129ee565b925082612adb57612ada612b15565b5b828206905092915050565b7f4e487b7100000000000000000000000000000000000000000000000000000000600052601160045260246000fd5b7f4e487b7100000000000000000000000000000000000000000000000000000000600052601260045260246000fd5b7f4e487b7100000000000000000000000000000000000000000000000000000000600052602260045260246000fd5b7f4e487b7100000000000000000000000000000000000000000000000000000000600052604160045260246000fd5b6000601f19601f8301169050919050565b612bbc81612984565b8114612bc757600080fd5b50565b612bd381612996565b8114612bde57600080fd5b50565b612bea816129a2565b8114612bf557600080fd5b50565b612c01816129ee565b8114612c0c57600080fd5b5056fea2646970667358221220d1c6630b996d97b360384f8a5871a468fa040874ef3f4f5e3758e2e3fbcf5e0e64736f6c63430008000033",
  "immutableReferences": {},
  "source": "// SPDX-License-Identifier: MIT\npragma solidity >=0.8.0;\n\nimport \"@openzeppelin/contracts/token/ERC721/ERC721.sol\";\nimport \"@openzeppelin/contracts/token/ERC721/extensions/ERC721URIStorage.sol\";\nimport \"@openzeppelin/contracts/utils/Counters.sol\";\n\ncontract Diploma is ERC721URIStorage {\n  using Counters for Counters.Counter;\n  Counters.Counter private _tokenIds;\n\n  mapping(string => uint8) files;\n\n  constructor() ERC721(\"diploma\", \"DPLM\") {}\n\n  function awardDiploma(address student, string memory tokenURI) public returns (uint256) {\n    require(files[tokenURI] != 1, 'Error: the diploma is already vinculated to a student');\n    files[tokenURI] = 1;\n    _tokenIds.increment();\n\n    uint256 newDiplomaId = _tokenIds.current();\n    _safeMint(student, newDiplomaId);\n    _setTokenURI(newDiplomaId, tokenURI);\n\n    return newDiplomaId;\n  }\n}\n",
  "sourcePath": "/home/emerson/Documentos/uefs/tcc/nft-diploma/contracts/Diploma.sol",
  "compiler": {
    "name": "solc",
    "version": "0.8.0+commit.c7dfd78e.Emscripten.clang"
  },
  "schemaVersion": "3.4.0",
  "updatedAt": "2021-08-19T23:29:41.736Z",
  "networkType": "ethereum",
  "devdoc": {
    "kind": "dev",
    "methods": {
      "approve(address,uint256)": {
        "details": "See {IERC721-approve}."
      },
      "balanceOf(address)": {
        "details": "See {IERC721-balanceOf}."
      },
      "getApproved(uint256)": {
        "details": "See {IERC721-getApproved}."
      },
      "isApprovedForAll(address,address)": {
        "details": "See {IERC721-isApprovedForAll}."
      },
      "name()": {
        "details": "See {IERC721Metadata-name}."
      },
      "ownerOf(uint256)": {
        "details": "See {IERC721-ownerOf}."
      },
      "safeTransferFrom(address,address,uint256)": {
        "details": "See {IERC721-safeTransferFrom}."
      },
      "safeTransferFrom(address,address,uint256,bytes)": {
        "details": "See {IERC721-safeTransferFrom}."
      },
      "setApprovalForAll(address,bool)": {
        "details": "See {IERC721-setApprovalForAll}."
      },
      "supportsInterface(bytes4)": {
        "details": "See {IERC165-supportsInterface}."
      },
      "symbol()": {
        "details": "See {IERC721Metadata-symbol}."
      },
      "tokenURI(uint256)": {
        "details": "See {IERC721Metadata-tokenURI}."
      },
      "transferFrom(address,address,uint256)": {
        "details": "See {IERC721-transferFrom}."
      }
    },
    "version": 1
  },
  "userdoc": {
    "kind": "user",
    "methods": {},
    "version": 1
  }
}